:100000000C942A000C943F000C943F000C943F0089
:100010000C943F000C943F000C943F000C943F0064
:100020000C943F000C943F000C943F000C943F0054
:100030000C943F000C943F000C943F000C943F0044
:100040000C943F000C943F000C943F000C943F0034
:100050000C943F0011241FBECFE5D8E0DEBFCDBF1A
:1000600010E0A0E6B0E0EEE4F3E002C005900D92EF
:10007000A037B107D9F70E9463010C94A5010C9435
:100080000000613029F4E82FF0E08FEF81830895BC
:10009000E82FF0E011820895413069F4E82FF0E094
:1000A000218181E090E002C0880F991F6A95E2F7F4
:1000B000822B81830895E82FF0E0218181E090E098
:1000C00002C0880F991F6A95E2F780958223818389
:1000D0000895E82FF0E0828121E030E002C0220F95
:1000E000331F6A95E2F7282B22830895E82FF0E06A
:1000F000828121E030E002C0220F331F6A95E2F7CF
:100100002095282322830895E82FF0E06283089544
:10011000CF93C82F60E083E30E9476006C2F80E3CA
:100120000E94840061E083E30E94690082E08A9576
:10013000F1F700C061E083E30E94760087EC90E075
:100140000197F1F700C00000CF91089561E080E3CE
:100150000E94410041E060E083E30E944C0041E0E6
:1001600061E083E30E944C0060E080E30E94840031
:1001700061E083E30E9476008FE99FE00197F1F749
:1001800000C0000088E30E9488008EE00E94880082
:1001900081E00E9488008FE99FE00197F1F700C09D
:1001A000000086E00E9488000895CF93C82F60E089
:1001B00083E30E9469006C2F80E30E94840061E069
:1001C00083E30E94690082E08A95F1F700C061E054
:1001D00083E30E94760087EC90E00197F1F700C07E
:1001E0000000CF91089581E088BB89B3813019F474
:1001F00080916000089589B3823019F48091640081
:10020000089589B3843019F480916800089589B302
:10021000883019F480916C00089585E4089582E097
:1002200088BB89B3813019F480916100089589B346
:10023000823019F480916500089589B3843019F4EF
:1002400080916900089589B3883019F480916D0018
:10025000089585E4089584E088BB89B3813019F45A
:1002600080916200089589B3823019F4809166000C
:10027000089589B3843019F480916A00089589B390
:10028000883019F480916E00089585E4089588E01F
:1002900088BB89B3813019F480916300089589B3D4
:1002A000823019F480916700089589B3843019F47D
:1002B00080916B00089589B3883019F480916F00A4
:1002C000089585E408950E94A6001ABA8FEF87BBAF
:1002D0000E94F3002FE738E391E021503040904036
:1002E000E1F700C00000853411F00E94D5000E94A3
:1002F0000F012FE738E391E0215030409040E1F7C3
:1003000000C00000853411F00E94D5000E942B012E
:100310002FE738E391E0215030409040E1F700C0F2
:100320000000853411F00E94D5000E9447012FE79C
:1003300038E391E0215030409040E1F700C00000E8
:0E034000853431F20E94D500C3CFF894FFCF70
:10034E003738392F3435362A3132332D43303D2B61
:00000001FF
